S00E000061737369676E2E7372656391
S11300000C942A000C9430010C945C010C9488012B
S11300100C9434000C9434000C9434000C9434008C
S11300200C9434000C9434000C9434000C9434007C
S11300300C9434000C9434000C9434000C9434006C
S11300400C9434000C9434000C9434000C9434005C
S11300500C94340011241FBECFE5D8E0DEBFCDBF21
S11300600E942B010C9421060C940000611571056B
S1130070E9F4009721F425B7226025BF11C081302F
S1130080910521F425B7236025BF0AC0823091056C
S113009021F425B7216025BF03C025B72C7F25BFD8
S11300A02BB720642BBF2FB720682FBF6130710599
S11300B0E9F4009721F425B7246025BF11C08130ED
S11300C0910521F425B7266025BF0AC08230910529
S11300D021F425B7226025BF03C025B7297F25BF9A
S11300E02BB720682BBF2FB720682FBF6230710554
S11300F099F42BB72F7D2BBF009719F424B72F7BCE
S113010024BF019719F484B7806484BF8BB78062DD
S11301108BBF8FB780688FBF089562E084E40E942C
S1130120B80063E084E40E94B80062E082E40E94C4
S1130130B80060E070E082E090E00E94360061E088
S113014070E081E090E00E94360062E070E080E0C0
S113015090E00E94360065E084E40E94160166E0A7
S113016084E40E94160167E084E40E941601F3CF40
S1130170CF93DF9300D0CDB7DEB789836A836A81DA
S1130180898140E00E94B4010F900F90DF91CF91DC
S11301900895CF93DF9300D0CDB7DEB789836A8308
S11301A06A81898141E00E94B4010F900F90DF9130
S11301B0CF9108951F93CF93DF9300D0CDB7DEB7CF
S11301C089836A83142F6A8189810E94C90011304E
S11301D031F46A81898141E00E9459020CC01111F5
S11301E006C06A81898140E00E94590204C06A8184
S11301F089810E9418040F900F90DF91CF911F9175
S11302000895CF93DF9300D0CDB7DEB789836A8397
S11302106A8189810E94C9006A81898141E00E94C2
S1130220DA000F900F90DF91CF910895CF93DF9371
S113023000D0CDB7DEB789836A836A8189810E9441
S1130240C9006A81898140E00E94DA000F900F9012
S1130250DF91CF9108950E948D0080E090E0089591
S11302601F920F920FB60F9211242F933F934F9327
S11302705F936F937F938F939F93AF93BF93EF930A
S1130280FF9365E084E40E94010160E070E080E88F
S11302909FE30E94FE02FF91EF91BF91AF919F9166
S11302A08F917F916F915F914F913F912F910F901B
S11302B00FBE0F901F9018951F920F920FB60F92BA
S11302C011242F933F934F935F936F937F938F9357
S11302D09F93AF93BF93EF93FF9366E084E40E94F0
S11302E0010160E070E080E89FE30E94FE02FF915C
S11302F0EF91BF91AF919F918F917F916F915F919A
S11303004F913F912F910F900FBE0F901F90189512
S11303101F920F920FB60F9211242F933F934F9376
S11303205F936F937F938F939F93AF93BF93EF9359
S1130330FF9367E084E40E94010160E070E080E8DC
S11303409FE30E94FE02FF91EF91BF91AF919F91B5
S11303508F917F916F915F914F913F912F910F906A
S11303600FBE0F901F901895CF93DF9300D0CDB799
S1130370DEB789836A838981823461F118F4813418
S113038041F089C0833409F446C0843409F463C05D
S113039082C041110FC02A8181E090E002C0880F21
S11303A0991F2A95E2F7809590959AB389238ABB81
S11303B080E07AC0413009F070C02A8181E090E089
S11303C002C0880F991F2A95E2F79AB3892B8ABB3A
S11303D080E06AC041110FC02A8181E090E002C030
S11303E0880F991F2A95E2F78095909597B38923F2
S11303F087BB80E059C0413009F051C02A8181E0B7
S113040090E002C0880F991F2A95E2F797B3892BD1
S113041087BB80E049C041110FC02A8181E090E090
S113042002C0880F991F2A95E2F78095909594B39E
S1130430892384BB80E038C0413099F52A8181E06A
S113044090E002C0880F991F2A95E2F794B3892B94
S113045084BB80E029C041110FC02A8181E090E073
S113046002C0880F991F2A95E2F78095909591B361
S1130470892381BB80E018C04130A9F42A8181E03E
S113048090E002C0880F991F2A95E2F791B3892B57
S113049081BB80E009C081E007C081E005C081E044
S11304A003C081E001C081E00F900F90DF91CF91F4
S11304B00895CF93DF9300D0CDB7DEB789836A83E5
S11304C08981823461F118F4813441F089C0833424
S11304D009F446C0843409F463C082C041110FC0DA
S11304E02A8181E090E002C0880F991F2A95E2F7E3
S11304F0809590959BB389238BBB80E07AC0413073
S113050009F070C02A8181E090E002C0880F991F31
S11305102A95E2F79BB3892B8BBB80E06AC041111B
S11305200FC02A8181E090E002C0880F991F2A95AC
S1130530E2F78095909598B3892388BB80E059C0F1
S1130540413009F051C02A8181E090E002C0880F57
S1130550991F2A95E2F798B3892B88BB80E049C09C
S113056041110FC02A8181E090E002C0880F991FD9
S11305702A95E2F78095909595B3892385BB80E011
S113058038C0413099F52A8181E090E002C0880F9B
S1130590991F2A95E2F795B3892B85BB80E029C082
S11305A041110FC02A8181E090E002C0880F991F99
S11305B02A95E2F78095909592B3892382BB80E0D7
S11305C018C04130A9F42A8181E090E002C0880F6C
S11305D0991F2A95E2F792B3892B82BB80E009C068
S11305E081E007C081E005C081E003C081E001C073
S11305F081E00F900F90DF91CF9108958F929F9299
S1130600AF92BF92CF92DF92EF92FF92CF93DF939C
S11306106B017C012DEB37E346E859E30E94BE04ED
S11306201816F4F013BEA70196016DEB77E386E884
S113063099E30E943A042DEB37E346E855E30E9420
S1130640C3040E94A7040E943C0562BF83B7816073
S113065083BF08B600FEFDCF88B7816088BFDDC0C8
S11306602DEB37E346E05BE3C701B6010E94BE040D
S11306701816F4F013BEA70196016DEB77E386E03C
S11306809BE30E943A042DEB37E346E057E30E94D4
S1130690C3040E94A7040E943C0562BF83B7826022
S11306A083BF08B600FEFDCF88B7816088BFB5C0A0
S11306B02DEB37E346E85CE3C701B6010E94BE04B4
S11306C018160CF113BEA70196016DEB77E386E8CB
S11306D09CE30E943A042DEB37E346E858E30E947A
S11306E0C3040E94A7040E943C0562BF83B78160D3
S11306F083BF83B7826083BF08B600FEFDCF88B78F
S1130700816088BF8AC02DEB37E346E85DE3C7010B
S1130710B6010E94BE041816F4F013BEA701960198
S11307206DEB77E386E89DE30E943A042DEB37E313
S113073046E859E30E94C3040E94A7040E943C05B2
S113074062BF83B7846083BF08B600FEFDCF88B75D
S1130750816088BF62C02DEB37E346E85EE3C701E2
S1130760B6010E94BE041816FCF013BEA701960140
S11307706DEB77E386E89EE30E943A042DEB37E3C2
S113078046E85AE30E94C3040E94350562BF83B75A
S1130790816083BF83B7846083BF08B600FEFDCF4A
S11307A088B7816088BF39C02DEB37E346E85EE344
S11307B0C701B6010E94C3044B015C010E94A70457
S11307C00E943505EB0127C013BE2DEB37E346E845
S11307D05AE3C701B6010E94C304A50194010E9413
S11307E0C3049B01AC0160E070E080E893E40E94E4
S11307F03A040E94A7040E943C0562BF83B781604B
S113080083BF83B7846083BF08B600FEFDCF88B77B
S1130810816088BF21972097B9F6DF91CF91FF902F
S1130820EF90DF90CF90BF90AF909F908F900895FE
S1130830CF93DF9300D0CDB7DEB789836A836A8113
S1130840898141E00E94590260E070E080EA90E40E
S11308500E94FE026A81898140E00E94590260E0A0
S113086070E080EA90E40E94FE020F900F90DF9106
S1130870CF9108955058BB27AA270E9452040C9484
S1130880CF050E94C10538F00E94C80520F039F454
S11308909F3F19F426F40C94BE050EF4E095E7FB93
S11308A00C948F05E92F0E94E00558F3BA176207EC
S11308B073078407950720F079F4A6F50C941A06BB
S11308C00EF4E0950B2EBA2FA02D0B01B901900167
S11308D00C01CA01A0011124FF27591B99F0593FAB
S11308E050F4503E68F11A16F040A22F232F342FF3
S11308F04427585FF3CF469537952795A795F04041
S11309005395C9F77EF41F16BA0B620B730B840B55
S1130910BAF09150A1F0FF0FBB1F661F771F881F0D
S1130920C2F70EC0BA0F621F731F841F48F4879565
S113093077956795B795F7959E3F08F0B0CF939557
S1130940880F08F09927EE0F9795879508950E94D0
S1130950020690F09F3748F4911116F40C941B068C
S113096060E070E080E89FE3089526F01B16611DA7
S1130970711D811D0C9495050C94B0050E946B05A6
S113098008F481E008950E94D7040C94CF050E94D6
S1130990C80558F00E94C10540F029F45F3F29F0D2
S11309A00C948F0551110C941B060C94BE050E94E7
S11309B0E00568F39923B1F3552391F3951B550B87
S11309C0BB27AA2762177307840738F09F5F5F4F1E
S11309D0220F331F441FAA1FA9F335D00E2E3AF05D
S11309E0E0E832D091505040E695001CCAF72BD075
S11309F0FE2F29D0660F771F881FBB1F26173707C6
S1130A004807AB07B0E809F0BB0B802DBF01FF27F7
S1130A1093585F4F3AF09E3F510578F00C948F0540
S1130A200C941B065F3FE4F3983ED4F386957795C8
S1130A306795B795F7959F5FC9F7880F911D9695B0
S1130A40879597F90895E1E0660F771F881FBB1F0C
S1130A50621773078407BA0720F0621B730B840BB9
S1130A60BA0BEE1F88F7E09508950E943C05689440
S1130A70B1110C941B0608950E94E80588F09F5755
S1130A8098F0B92F9927B751B0F0E1F0660F771FAE
S1130A90881F991F1AF0BA95C9F714C0B13091F0A4
S1130AA00E941A06B1E008950C941A06672F782F55
S1130AB08827B85F39F0B93FCCF386957795679569
S1130AC0B395D9F73EF490958095709561957F4FD5
S1130AD08F4F9F4F0895990F0008550FAA0BE0E818
S1130AE0FEEF16161706E807F907C0F012161306EC
S1130AF0E407F50798F0621B730B840B950B39F42C
S1130B000A2661F0232B242B252B21F408950A2691
S1130B1009F4A140A6958FEF811D811D089597F9D1
S1130B209F6780E870E060E00895882371F477237C
S1130B3021F09850872B762F07C0662311F499274C
S1130B400DC09051862B70E060E02AF09A95660FF4
S1130B50771F881FDAF7880F9695879597F9089578
S1130B609F3F31F0915020F4879577956795B7951D
S1130B70880F911D9695879597F908959FEF80ECBE
S1130B80089500240A9416161706180609060895EF
S1130B9000240A9412161306140605060895092E55
S1130BA00394000C11F4882352F0BB0F40F4BF2BC4
S1130BB011F460FF04C06F5F7F4F8F4F9F4F089504
S1130BC057FD9058440F551F59F05F3F71F04795FA
S1130BD0880F97FB991F61F09F3F79F087950895DF
S1130BE0121613061406551FF2CF4695F1DF08C0FE
S1130BF0161617061806991FF1CF8695710561051B
S1130C00089408950E94E805A0F0BEE7B91788F497
S1130C10BB279F3860F41616B11D672F782F8827DD
S1130C20985FF7CF869577956795B11D939596391B
S1130C30C8F30895E894BB2766277727CB0197F973
S1090C400895F894FFCFB3
S9030000FC
